{
	"pureview.sol": {
		"state": {
			"abi": [
				{
					"inputs": [],
					"name": "getAge",
					"outputs": [
						{
							"internalType": "uint256",
							"name": "",
							"type": "uint256"
						}
					],
					"stateMutability": "view",
					"type": "function"
				},
				{
					"inputs": [],
					"name": "getRoll",
					"outputs": [
						{
							"internalType": "uint256",
							"name": "",
							"type": "uint256"
						}
					],
					"stateMutability": "pure",
					"type": "function"
				}
			],
			"devdoc": {
				"kind": "dev",
				"methods": {},
				"version": 1
			},
			"evm": {
				"assembly": "    /* \"pureview.sol\":61:295  contract state... */\n  mstore(0x40, 0x80)\n    /* \"pureview.sol\":93:95  20 */\n  0x14\n    /* \"pureview.sol\":84:95  uint age=20 */\n  0x00\n  sstore\n    /* \"pureview.sol\":61:295  contract state... */\n  callvalue\n  dup1\n  iszero\n  tag_1\n  jumpi\n  0x00\n  dup1\n  revert\ntag_1:\n  pop\n  dataSize(sub_0)\n  dup1\n  dataOffset(sub_0)\n  0x00\n  codecopy\n  0x00\n  return\nstop\n\nsub_0: assembly {\n        /* \"pureview.sol\":61:295  contract state... */\n      mstore(0x40, 0x80)\n      callvalue\n      dup1\n      iszero\n      tag_1\n      jumpi\n      0x00\n      dup1\n      revert\n    tag_1:\n      pop\n      jumpi(tag_2, lt(calldatasize, 0x04))\n      shr(0xe0, calldataload(0x00))\n      dup1\n      0x967e6e65\n      eq\n      tag_3\n      jumpi\n      dup1\n      0xa68316ea\n      eq\n      tag_4\n      jumpi\n    tag_2:\n      0x00\n      dup1\n      revert\n        /* \"pureview.sol\":104:182  function getAge() public view returns(uint)... */\n    tag_3:\n      tag_5\n      tag_6\n      jump\t// in\n    tag_5:\n      mload(0x40)\n      tag_7\n      swap2\n      swap1\n      tag_8\n      jump\t// in\n    tag_7:\n      mload(0x40)\n      dup1\n      swap2\n      sub\n      swap1\n      return\n        /* \"pureview.sol\":188:292  function getRoll() public pure returns(uint)... */\n    tag_4:\n      tag_9\n      tag_10\n      jump\t// in\n    tag_9:\n      mload(0x40)\n      tag_11\n      swap2\n      swap1\n      tag_8\n      jump\t// in\n    tag_11:\n      mload(0x40)\n      dup1\n      swap2\n      sub\n      swap1\n      return\n        /* \"pureview.sol\":104:182  function getAge() public view returns(uint)... */\n    tag_6:\n        /* \"pureview.sol\":142:146  uint */\n      0x00\n        /* \"pureview.sol\":171:174  age */\n      dup1\n      sload\n        /* \"pureview.sol\":164:174  return age */\n      swap1\n      pop\n        /* \"pureview.sol\":104:182  function getAge() public view returns(uint)... */\n      swap1\n      jump\t// out\n        /* \"pureview.sol\":188:292  function getRoll() public pure returns(uint)... */\n    tag_10:\n        /* \"pureview.sol\":227:231  uint */\n      0x00\n        /* \"pureview.sol\":249:258  uint roll */\n      dup1\n        /* \"pureview.sol\":260:262  30 */\n      0x1e\n        /* \"pureview.sol\":249:262  uint roll= 30 */\n      swap1\n      pop\n        /* \"pureview.sol\":280:284  roll */\n      dup1\n        /* \"pureview.sol\":273:284  return roll */\n      swap2\n      pop\n      pop\n        /* \"pureview.sol\":188:292  function getRoll() public pure returns(uint)... */\n      swap1\n      jump\t// out\n        /* \"#utility.yul\":7:84   */\n    tag_14:\n        /* \"#utility.yul\":44:51   */\n      0x00\n        /* \"#utility.yul\":73:78   */\n      dup2\n        /* \"#utility.yul\":62:78   */\n      swap1\n      pop\n        /* \"#utility.yul\":7:84   */\n      swap2\n      swap1\n      pop\n      jump\t// out\n        /* \"#utility.yul\":90:208   */\n    tag_15:\n        /* \"#utility.yul\":177:201   */\n      tag_19\n        /* \"#utility.yul\":195:200   */\n      dup2\n        /* \"#utility.yul\":177:201   */\n      tag_14\n      jump\t// in\n    tag_19:\n        /* \"#utility.yul\":172:175   */\n      dup3\n        /* \"#utility.yul\":165:202   */\n      mstore\n        /* \"#utility.yul\":90:208   */\n      pop\n      pop\n      jump\t// out\n        /* \"#utility.yul\":214:436   */\n    tag_8:\n        /* \"#utility.yul\":307:311   */\n      0x00\n        /* \"#utility.yul\":345:347   */\n      0x20\n        /* \"#utility.yul\":334:343   */\n      dup3\n        /* \"#utility.yul\":330:348   */\n      add\n        /* \"#utility.yul\":322:348   */\n      swap1\n      pop\n        /* \"#utility.yul\":358:429   */\n      tag_21\n        /* \"#utility.yul\":426:427   */\n      0x00\n        /* \"#utility.yul\":415:424   */\n      dup4\n        /* \"#utility.yul\":411:428   */\n      add\n        /* \"#utility.yul\":402:408   */\n      dup5\n        /* \"#utility.yul\":358:429   */\n      tag_15\n      jump\t// in\n    tag_21:\n        /* \"#utility.yul\":214:436   */\n      swap3\n      swap2\n      pop\n      pop\n      jump\t// out\n\n    auxdata: 0xa2646970667358221220eae663d60ad23836555ae2da393f12d894fe254a0578cce5298ea0433f39057664736f6c63430008150033\n}\n",
				"bytecode": {
					"linkReferences": {},
					"object": "608060405260145f55348015610013575f80fd5b5060e0806100205f395ff3fe6080604052348015600e575f80fd5b50600436106030575f3560e01c8063967e6e65146034578063a68316ea14604e575b5f80fd5b603a6068565b604051604591906093565b60405180910390f35b60546070565b604051605f91906093565b60405180910390f35b5f8054905090565b5f80601e90508091505090565b5f819050919050565b608d81607d565b82525050565b5f60208201905060a45f8301846086565b9291505056fea2646970667358221220eae663d60ad23836555ae2da393f12d894fe254a0578cce5298ea0433f39057664736f6c63430008150033",
					"opcodes": "PUSH1 0x80 PUSH1 0x40 MSTORE PUSH1 0x14 PUSH0 SSTORE CALLVALUE DUP1 ISZERO PUSH2 0x13 JUMPI PUSH0 DUP1 REVERT JUMPDEST POP PUSH1 0xE0 DUP1 PUSH2 0x20 PUSH0 CODECOPY PUSH0 RETURN INVALID PUSH1 0x80 PUSH1 0x40 MSTORE CALLVALUE DUP1 ISZERO PUSH1 0xE JUMPI PUSH0 DUP1 REVERT JUMPDEST POP PUSH1 0x4 CALLDATASIZE LT PUSH1 0x30 JUMPI PUSH0 CALLDATALOAD PUSH1 0xE0 SHR DUP1 PUSH4 0x967E6E65 EQ PUSH1 0x34 JUMPI DUP1 PUSH4 0xA68316EA EQ PUSH1 0x4E JUMPI JUMPDEST PUSH0 DUP1 REVERT JUMPDEST PUSH1 0x3A PUSH1 0x68 JUMP JUMPDEST PUSH1 0x40 MLOAD PUSH1 0x45 SWAP2 SWAP1 PUSH1 0x93 JUMP JUMPDEST PUSH1 0x40 MLOAD DUP1 SWAP2 SUB SWAP1 RETURN JUMPDEST PUSH1 0x54 PUSH1 0x70 JUMP JUMPDEST PUSH1 0x40 MLOAD PUSH1 0x5F SWAP2 SWAP1 PUSH1 0x93 JUMP JUMPDEST PUSH1 0x40 MLOAD DUP1 SWAP2 SUB SWAP1 RETURN JUMPDEST PUSH0 DUP1 SLOAD SWAP1 POP SWAP1 JUMP JUMPDEST PUSH0 DUP1 PUSH1 0x1E SWAP1 POP DUP1 SWAP2 POP POP SWAP1 JUMP JUMPDEST PUSH0 DUP2 SWAP1 POP SWAP2 SWAP1 POP JUMP JUMPDEST PUSH1 0x8D DUP2 PUSH1 0x7D JUMP JUMPDEST DUP3 MSTORE POP POP JUMP JUMPDEST PUSH0 PUSH1 0x20 DUP3 ADD SWAP1 POP PUSH1 0xA4 PUSH0 DUP4 ADD DUP5 PUSH1 0x86 JUMP JUMPDEST SWAP3 SWAP2 POP POP JUMP INVALID LOG2 PUSH5 0x6970667358 0x22 SLT KECCAK256 0xEA 0xE6 PUSH4 0xD60AD238 CALLDATASIZE SSTORE GAS 0xE2 0xDA CODECOPY EXTCODEHASH SLT 0xD8 SWAP5 INVALID 0x25 0x4A SDIV PUSH25 0xCCE5298EA0433F39057664736F6C6343000815003300000000 "
				},
				"gasEstimates": {
					"creation": {
						"codeDepositCost": "44800",
						"executionCost": "22196",
						"totalCost": "66996"
					},
					"external": {
						"getAge()": "2410",
						"getRoll()": "345"
					}
				},
				"methodIdentifiers": {
					"getAge()": "967e6e65",
					"getRoll()": "a68316ea"
				}
			},
			"storageLayout": {
				"storage": [
					{
						"astId": 4,
						"contract": "pureview.sol:state",
						"label": "age",
						"offset": 0,
						"slot": "0",
						"type": "t_uint256"
					}
				],
				"types": {
					"t_uint256": {
						"encoding": "inplace",
						"label": "uint256",
						"numberOfBytes": "32"
					}
				}
			},
			"userdoc": {
				"kind": "user",
				"methods": {},
				"version": 1
			}
		}
	}
}