{
	"data": {
		"bytecode": {
			"linkReferences": {},
			"object": "608060405260405180608001604052806040518060400160405280600881526020017f507261736875766100000000000000000000000000000000000000000000000081525081526020016040518060400160405280600681526020017f4b616d616c61000000000000000000000000000000000000000000000000000081525081526020016040518060400160405280600681526020017f42696d616c61000000000000000000000000000000000000000000000000000081525081526020016040518060400160405280600781526020017f7072617368756e000000000000000000000000000000000000000000000000008152508152505f9060046200010a9291906200011e565b5034801562000117575f80fd5b506200054b565b828054828255905f5260205f2090810192821562000169579160200282015b828111156200016857825182908162000157919062000467565b50916020019190600101906200013d565b5b5090506200017891906200017c565b5090565b5b808211156200019f575f8181620001959190620001a3565b506001016200017d565b5090565b508054620001b19062000267565b5f825580601f10620001c45750620001e3565b601f0160209004905f5260205f2090810190620001e29190620001e6565b5b50565b5b80821115620001ff575f815f905550600101620001e7565b5090565b5f81519050919050565b7f4e487b71000000000000000000000000000000000000000000000000000000005f52604160045260245ffd5b7f4e487b71000000000000000000000000000000000000000000000000000000005f52602260045260245ffd5b5f60028204905060018216806200027f57607f821691505b6020821081036200029557620002946200023a565b5b50919050565b5f819050815f5260205f209050919050565b5f6020601f8301049050919050565b5f82821b905092915050565b5f60088302620002f97fffffffffffffffffffffffffffffffffffffffffffffffffffffffffffffffff82620002bc565b620003058683620002bc565b95508019841693508086168417925050509392505050565b5f819050919050565b5f819050919050565b5f6200034f6200034962000343846200031d565b62000326565b6200031d565b9050919050565b5f819050919050565b6200036a836200032f565b62000382620003798262000356565b848454620002c8565b825550505050565b5f90565b620003986200038a565b620003a58184846200035f565b505050565b5b81811015620003cc57620003c05f826200038e565b600181019050620003ab565b5050565b601f8211156200041b57620003e5816200029b565b620003f084620002ad565b8101602085101562000400578190505b620004186200040f85620002ad565b830182620003aa565b50505b505050565b5f82821c905092915050565b5f6200043d5f198460080262000420565b1980831691505092915050565b5f6200045783836200042c565b9150826002028217905092915050565b620004728262000203565b67ffffffffffffffff8111156200048e576200048d6200020d565b5b6200049a825462000267565b620004a7828285620003d0565b5f60209050601f831160018114620004dd575f8415620004c8578287015190505b620004d485826200044a565b86555062000543565b601f198416620004ed866200029b565b5f5b828110156200051657848901518255600182019150602085019450602081019050620004ef565b8683101562000536578489015162000532601f8916826200042c565b8355505b6001600288020188555050505b505050505050565b61071980620005595f395ff3fe608060405234801561000f575f80fd5b506004361061003f575f3560e01c806335f342321461004357806385883d8c14610073578063bcad62101461007d575b5f80fd5b61005d600480360381019061005891906102eb565b610087565b60405161006a91906103a0565b60405180910390f35b61007b61012c565b005b610085610252565b005b5f8181548110610095575f80fd5b905f5260205f20015f9150905080546100ad906103ed565b80601f01602080910402602001604051908101604052809291908181526020018280546100d9906103ed565b80156101245780601f106100fb57610100808354040283529160200191610124565b820191905f5260205f20905b81548152906001019060200180831161010757829003601f168201915b505050505081565b5f80805480602002602001604051908101604052809291908181526020015f905b828210156101f5578382905f5260205f2001805461016a906103ed565b80601f0160208091040260200160405190810160405280929190818152602001828054610196906103ed565b80156101e15780601f106101b8576101008083540402835291602001916101e1565b820191905f5260205f20905b8154815290600101906020018083116101c457829003601f168201915b50505050508152602001906001019061014d565b5050505090506040518060400160405280600681526020017f4b68757368690000000000000000000000000000000000000000000000000000815250815f815181106102445761024361041d565b5b602002602001018190525050565b5f6040518060400160405280600681526020017f6b68757368690000000000000000000000000000000000000000000000000000815250815f8154811061029c5761029b61041d565b5b905f5260205f200190816102b09190610614565b5050565b5f80fd5b5f819050919050565b6102ca816102b8565b81146102d4575f80fd5b50565b5f813590506102e5816102c1565b92915050565b5f60208284031215610300576102ff6102b4565b5b5f61030d848285016102d7565b91505092915050565b5f81519050919050565b5f82825260208201905092915050565b5f5b8381101561034d578082015181840152602081019050610332565b5f8484015250505050565b5f601f19601f8301169050919050565b5f61037282610316565b61037c8185610320565b935061038c818560208601610330565b61039581610358565b840191505092915050565b5f6020820190508181035f8301526103b88184610368565b905092915050565b7f4e487b71000000000000000000000000000000000000000000000000000000005f52602260045260245ffd5b5f600282049050600182168061040457607f821691505b602082108103610417576104166103c0565b5b50919050565b7f4e487b71000000000000000000000000000000000000000000000000000000005f52603260045260245ffd5b7f4e487b71000000000000000000000000000000000000000000000000000000005f52604160045260245ffd5b5f819050815f5260205f209050919050565b5f6020601f8301049050919050565b5f82821b905092915050565b5f600883026104d37fffffffffffffffffffffffffffffffffffffffffffffffffffffffffffffffff82610498565b6104dd8683610498565b95508019841693508086168417925050509392505050565b5f819050919050565b5f61051861051361050e846102b8565b6104f5565b6102b8565b9050919050565b5f819050919050565b610531836104fe565b61054561053d8261051f565b8484546104a4565b825550505050565b5f90565b61055961054d565b610564818484610528565b505050565b5b818110156105875761057c5f82610551565b60018101905061056a565b5050565b601f8211156105cc5761059d81610477565b6105a684610489565b810160208510156105b5578190505b6105c96105c185610489565b830182610569565b50505b505050565b5f82821c905092915050565b5f6105ec5f19846008026105d1565b1980831691505092915050565b5f61060483836105dd565b9150826002028217905092915050565b61061d82610316565b67ffffffffffffffff8111156106365761063561044a565b5b61064082546103ed565b61064b82828561058b565b5f60209050601f83116001811461067c575f841561066a578287015190505b61067485826105f9565b8655506106db565b601f19841661068a86610477565b5f5b828110156106b15784890151825560018201915060208501945060208101905061068c565b868310156106ce57848901516106ca601f8916826105dd565b8355505b6001600288020188555050505b50505050505056fea2646970667358221220f0fa48e667d2438c18fcaa801c076804dc18bb132f75ac52d2c5e785c9a8285264736f6c63430008150033",
			"opcodes": "PUSH1 0x80 PUSH1 0x40 MSTORE PUSH1 0x40 MLOAD DUP1 PUSH1 0x80 ADD PUSH1 0x40 MSTORE DUP1 PUSH1 0x40 MLOAD DUP1 PUSH1 0x40 ADD PUSH1 0x40 MSTORE DUP1 PUSH1 0x8 DUP2 MSTORE PUSH1 0x20 ADD PUSH32 0x5072617368757661000000000000000000000000000000000000000000000000 DUP2 MSTORE POP DUP2 MSTORE PUSH1 0x20 ADD PUSH1 0x40 MLOAD DUP1 PUSH1 0x40 ADD PUSH1 0x40 MSTORE DUP1 PUSH1 0x6 DUP2 MSTORE PUSH1 0x20 ADD PUSH32 0x4B616D616C610000000000000000000000000000000000000000000000000000 DUP2 MSTORE POP DUP2 MSTORE PUSH1 0x20 ADD PUSH1 0x40 MLOAD DUP1 PUSH1 0x40 ADD PUSH1 0x40 MSTORE DUP1 PUSH1 0x6 DUP2 MSTORE PUSH1 0x20 ADD PUSH32 0x42696D616C610000000000000000000000000000000000000000000000000000 DUP2 MSTORE POP DUP2 MSTORE PUSH1 0x20 ADD PUSH1 0x40 MLOAD DUP1 PUSH1 0x40 ADD PUSH1 0x40 MSTORE DUP1 PUSH1 0x7 DUP2 MSTORE PUSH1 0x20 ADD PUSH32 0x7072617368756E00000000000000000000000000000000000000000000000000 DUP2 MSTORE POP DUP2 MSTORE POP PUSH0 SWAP1 PUSH1 0x4 PUSH3 0x10A SWAP3 SWAP2 SWAP1 PUSH3 0x11E JUMP JUMPDEST POP CALLVALUE DUP1 ISZERO PUSH3 0x117 JUMPI PUSH0 DUP1 REVERT JUMPDEST POP PUSH3 0x54B JUMP JUMPDEST DUP3 DUP1 SLOAD DUP3 DUP3 SSTORE SWAP1 PUSH0 MSTORE PUSH1 0x20 PUSH0 KECCAK256 SWAP1 DUP2 ADD SWAP3 DUP3 ISZERO PUSH3 0x169 JUMPI SWAP2 PUSH1 0x20 MUL DUP3 ADD JUMPDEST DUP3 DUP2 GT ISZERO PUSH3 0x168 JUMPI DUP3 MLOAD DUP3 SWAP1 DUP2 PUSH3 0x157 SWAP2 SWAP1 PUSH3 0x467 JUMP JUMPDEST POP SWAP2 PUSH1 0x20 ADD SWAP2 SWAP1 PUSH1 0x1 ADD SWAP1 PUSH3 0x13D JUMP JUMPDEST JUMPDEST POP SWAP1 POP PUSH3 0x178 SWAP2 SWAP1 PUSH3 0x17C JUMP JUMPDEST POP SWAP1 JUMP JUMPDEST JUMPDEST DUP1 DUP3 GT ISZERO PUSH3 0x19F JUMPI PUSH0 DUP2 DUP2 PUSH3 0x195 SWAP2 SWAP1 PUSH3 0x1A3 JUMP JUMPDEST POP PUSH1 0x1 ADD PUSH3 0x17D JUMP JUMPDEST POP SWAP1 JUMP JUMPDEST POP DUP1 SLOAD PUSH3 0x1B1 SWAP1 PUSH3 0x267 JUMP JUMPDEST PUSH0 DUP3 SSTORE DUP1 PUSH1 0x1F LT PUSH3 0x1C4 JUMPI POP PUSH3 0x1E3 JUMP JUMPDEST PUSH1 0x1F ADD PUSH1 0x20 SWAP1 DIV SWAP1 PUSH0 MSTORE PUSH1 0x20 PUSH0 KECCAK256 SWAP1 DUP2 ADD SWAP1 PUSH3 0x1E2 SWAP2 SWAP1 PUSH3 0x1E6 JUMP JUMPDEST JUMPDEST POP JUMP JUMPDEST JUMPDEST DUP1 DUP3 GT ISZERO PUSH3 0x1FF JUMPI PUSH0 DUP2 PUSH0 SWAP1 SSTORE POP PUSH1 0x1 ADD PUSH3 0x1E7 JUMP JUMPDEST POP SWAP1 JUMP JUMPDEST PUSH0 DUP2 MLOAD SWAP1 POP SWAP2 SWAP1 POP JUMP JUMPDEST PUSH32 0x4E487B7100000000000000000000000000000000000000000000000000000000 PUSH0 MSTORE PUSH1 0x41 PUSH1 0x4 MSTORE PUSH1 0x24 PUSH0 REVERT JUMPDEST PUSH32 0x4E487B7100000000000000000000000000000000000000000000000000000000 PUSH0 MSTORE PUSH1 0x22 PUSH1 0x4 MSTORE PUSH1 0x24 PUSH0 REVERT JUMPDEST PUSH0 PUSH1 0x2 DUP3 DIV SWAP1 POP PUSH1 0x1 DUP3 AND DUP1 PUSH3 0x27F JUMPI PUSH1 0x7F DUP3 AND SWAP2 POP JUMPDEST PUSH1 0x20 DUP3 LT DUP2 SUB PUSH3 0x295 JUMPI PUSH3 0x294 PUSH3 0x23A JUMP JUMPDEST JUMPDEST POP SWAP2 SWAP1 POP JUMP JUMPDEST PUSH0 DUP2 SWAP1 POP DUP2 PUSH0 MSTORE PUSH1 0x20 PUSH0 KECCAK256 SWAP1 POP SWAP2 SWAP1 POP JUMP JUMPDEST PUSH0 PUSH1 0x20 PUSH1 0x1F DUP4 ADD DIV SWAP1 POP SWAP2 SWAP1 POP JUMP JUMPDEST PUSH0 DUP3 DUP3 SHL SWAP1 POP SWAP3 SWAP2 POP POP JUMP JUMPDEST PUSH0 PUSH1 0x8 DUP4 MUL PUSH3 0x2F9 PUSH32 0xFFFFFFFFFFFFFFFFFFFFFFFFFFFFFFFFFFFFFFFFFFFFFFFFFFFFFFFFFFFFFFFF DUP3 PUSH3 0x2BC JUMP JUMPDEST PUSH3 0x305 DUP7 DUP4 PUSH3 0x2BC JUMP JUMPDEST SWAP6 POP DUP1 NOT DUP5 AND SWAP4 POP DUP1 DUP7 AND DUP5 OR SWAP3 POP POP POP SWAP4 SWAP3 POP POP POP JUMP JUMPDEST PUSH0 DUP2 SWAP1 POP SWAP2 SWAP1 POP JUMP JUMPDEST PUSH0 DUP2 SWAP1 POP SWAP2 SWAP1 POP JUMP JUMPDEST PUSH0 PUSH3 0x34F PUSH3 0x349 PUSH3 0x343 DUP5 PUSH3 0x31D JUMP JUMPDEST PUSH3 0x326 JUMP JUMPDEST PUSH3 0x31D JUMP JUMPDEST SWAP1 POP SWAP2 SWAP1 POP JUMP JUMPDEST PUSH0 DUP2 SWAP1 POP SWAP2 SWAP1 POP JUMP JUMPDEST PUSH3 0x36A DUP4 PUSH3 0x32F JUMP JUMPDEST PUSH3 0x382 PUSH3 0x379 DUP3 PUSH3 0x356 JUMP JUMPDEST DUP5 DUP5 SLOAD PUSH3 0x2C8 JUMP JUMPDEST DUP3 SSTORE POP POP POP POP JUMP JUMPDEST PUSH0 SWAP1 JUMP JUMPDEST PUSH3 0x398 PUSH3 0x38A JUMP JUMPDEST PUSH3 0x3A5 DUP2 DUP5 DUP5 PUSH3 0x35F JUMP JUMPDEST POP POP POP JUMP JUMPDEST JUMPDEST DUP2 DUP2 LT ISZERO PUSH3 0x3CC JUMPI PUSH3 0x3C0 PUSH0 DUP3 PUSH3 0x38E JUMP JUMPDEST PUSH1 0x1 DUP2 ADD SWAP1 POP PUSH3 0x3AB JUMP JUMPDEST POP POP JUMP JUMPDEST PUSH1 0x1F DUP3 GT ISZERO PUSH3 0x41B JUMPI PUSH3 0x3E5 DUP2 PUSH3 0x29B JUMP JUMPDEST PUSH3 0x3F0 DUP5 PUSH3 0x2AD JUMP JUMPDEST DUP2 ADD PUSH1 0x20 DUP6 LT ISZERO PUSH3 0x400 JUMPI DUP2 SWAP1 POP JUMPDEST PUSH3 0x418 PUSH3 0x40F DUP6 PUSH3 0x2AD JUMP JUMPDEST DUP4 ADD DUP3 PUSH3 0x3AA JUMP JUMPDEST POP POP JUMPDEST POP POP POP JUMP JUMPDEST PUSH0 DUP3 DUP3 SHR SWAP1 POP SWAP3 SWAP2 POP POP JUMP JUMPDEST PUSH0 PUSH3 0x43D PUSH0 NOT DUP5 PUSH1 0x8 MUL PUSH3 0x420 JUMP JUMPDEST NOT DUP1 DUP4 AND SWAP2 POP POP SWAP3 SWAP2 POP POP JUMP JUMPDEST PUSH0 PUSH3 0x457 DUP4 DUP4 PUSH3 0x42C JUMP JUMPDEST SWAP2 POP DUP3 PUSH1 0x2 MUL DUP3 OR SWAP1 POP SWAP3 SWAP2 POP POP JUMP JUMPDEST PUSH3 0x472 DUP3 PUSH3 0x203 JUMP JUMPDEST PUSH8 0xFFFFFFFFFFFFFFFF DUP2 GT ISZERO PUSH3 0x48E JUMPI PUSH3 0x48D PUSH3 0x20D JUMP JUMPDEST JUMPDEST PUSH3 0x49A DUP3 SLOAD PUSH3 0x267 JUMP JUMPDEST PUSH3 0x4A7 DUP3 DUP3 DUP6 PUSH3 0x3D0 JUMP JUMPDEST PUSH0 PUSH1 0x20 SWAP1 POP PUSH1 0x1F DUP4 GT PUSH1 0x1 DUP2 EQ PUSH3 0x4DD JUMPI PUSH0 DUP5 ISZERO PUSH3 0x4C8 JUMPI DUP3 DUP8 ADD MLOAD SWAP1 POP JUMPDEST PUSH3 0x4D4 DUP6 DUP3 PUSH3 0x44A JUMP JUMPDEST DUP7 SSTORE POP PUSH3 0x543 JUMP JUMPDEST PUSH1 0x1F NOT DUP5 AND PUSH3 0x4ED DUP7 PUSH3 0x29B JUMP JUMPDEST PUSH0 JUMPDEST DUP3 DUP2 LT ISZERO PUSH3 0x516 JUMPI DUP5 DUP10 ADD MLOAD DUP3 SSTORE PUSH1 0x1 DUP3 ADD SWAP2 POP PUSH1 0x20 DUP6 ADD SWAP5 POP PUSH1 0x20 DUP2 ADD SWAP1 POP PUSH3 0x4EF JUMP JUMPDEST DUP7 DUP4 LT ISZERO PUSH3 0x536 JUMPI DUP5 DUP10 ADD MLOAD PUSH3 0x532 PUSH1 0x1F DUP10 AND DUP3 PUSH3 0x42C JUMP JUMPDEST DUP4 SSTORE POP JUMPDEST PUSH1 0x1 PUSH1 0x2 DUP9 MUL ADD DUP9 SSTORE POP POP POP JUMPDEST POP POP POP POP POP POP JUMP JUMPDEST PUSH2 0x719 DUP1 PUSH3 0x559 PUSH0 CODECOPY PUSH0 RETURN INVALID PUSH1 0x80 PUSH1 0x40 MSTORE CALLVALUE DUP1 ISZERO PUSH2 0xF JUMPI PUSH0 DUP1 REVERT JUMPDEST POP PUSH1 0x4 CALLDATASIZE LT PUSH2 0x3F JUMPI PUSH0 CALLDATALOAD PUSH1 0xE0 SHR DUP1 PUSH4 0x35F34232 EQ PUSH2 0x43 JUMPI DUP1 PUSH4 0x85883D8C EQ PUSH2 0x73 JUMPI DUP1 PUSH4 0xBCAD6210 EQ PUSH2 0x7D JUMPI JUMPDEST PUSH0 DUP1 REVERT JUMPDEST PUSH2 0x5D PUSH1 0x4 DUP1 CALLDATASIZE SUB DUP2 ADD SWAP1 PUSH2 0x58 SWAP2 SWAP1 PUSH2 0x2EB JUMP JUMPDEST PUSH2 0x87 JUMP JUMPDEST PUSH1 0x40 MLOAD PUSH2 0x6A SWAP2 SWAP1 PUSH2 0x3A0 JUMP JUMPDEST PUSH1 0x40 MLOAD DUP1 SWAP2 SUB SWAP1 RETURN JUMPDEST PUSH2 0x7B PUSH2 0x12C JUMP JUMPDEST STOP JUMPDEST PUSH2 0x85 PUSH2 0x252 JUMP JUMPDEST STOP JUMPDEST PUSH0 DUP2 DUP2 SLOAD DUP2 LT PUSH2 0x95 JUMPI PUSH0 DUP1 REVERT JUMPDEST SWAP1 PUSH0 MSTORE PUSH1 0x20 PUSH0 KECCAK256 ADD PUSH0 SWAP2 POP SWAP1 POP DUP1 SLOAD PUSH2 0xAD SWAP1 PUSH2 0x3ED JUMP JUMPDEST DUP1 PUSH1 0x1F ADD PUSH1 0x20 DUP1 SWAP2 DIV MUL PUSH1 0x20 ADD PUSH1 0x40 MLOAD SWAP1 DUP2 ADD PUSH1 0x40 MSTORE DUP1 SWAP3 SWAP2 SWAP1 DUP2 DUP2 MSTORE PUSH1 0x20 ADD DUP3 DUP1 SLOAD PUSH2 0xD9 SWAP1 PUSH2 0x3ED JUMP JUMPDEST DUP1 ISZERO PUSH2 0x124 JUMPI DUP1 PUSH1 0x1F LT PUSH2 0xFB JUMPI PUSH2 0x100 DUP1 DUP4 SLOAD DIV MUL DUP4 MSTORE SWAP2 PUSH1 0x20 ADD SWAP2 PUSH2 0x124 JUMP JUMPDEST DUP3 ADD SWAP2 SWAP1 PUSH0 MSTORE PUSH1 0x20 PUSH0 KECCAK256 SWAP1 JUMPDEST DUP2 SLOAD DUP2 MSTORE SWAP1 PUSH1 0x1 ADD SWAP1 PUSH1 0x20 ADD DUP1 DUP4 GT PUSH2 0x107 JUMPI DUP3 SWAP1 SUB PUSH1 0x1F AND DUP3 ADD SWAP2 JUMPDEST POP POP POP POP POP DUP2 JUMP JUMPDEST PUSH0 DUP1 DUP1 SLOAD DUP1 PUSH1 0x20 MUL PUSH1 0x20 ADD PUSH1 0x40 MLOAD SWAP1 DUP2 ADD PUSH1 0x40 MSTORE DUP1 SWAP3 SWAP2 SWAP1 DUP2 DUP2 MSTORE PUSH1 0x20 ADD PUSH0 SWAP1 JUMPDEST DUP3 DUP3 LT ISZERO PUSH2 0x1F5 JUMPI DUP4 DUP3 SWAP1 PUSH0 MSTORE PUSH1 0x20 PUSH0 KECCAK256 ADD DUP1 SLOAD PUSH2 0x16A SWAP1 PUSH2 0x3ED JUMP JUMPDEST DUP1 PUSH1 0x1F ADD PUSH1 0x20 DUP1 SWAP2 DIV MUL PUSH1 0x20 ADD PUSH1 0x40 MLOAD SWAP1 DUP2 ADD PUSH1 0x40 MSTORE DUP1 SWAP3 SWAP2 SWAP1 DUP2 DUP2 MSTORE PUSH1 0x20 ADD DUP3 DUP1 SLOAD PUSH2 0x196 SWAP1 PUSH2 0x3ED JUMP JUMPDEST DUP1 ISZERO PUSH2 0x1E1 JUMPI DUP1 PUSH1 0x1F LT PUSH2 0x1B8 JUMPI PUSH2 0x100 DUP1 DUP4 SLOAD DIV MUL DUP4 MSTORE SWAP2 PUSH1 0x20 ADD SWAP2 PUSH2 0x1E1 JUMP JUMPDEST DUP3 ADD SWAP2 SWAP1 PUSH0 MSTORE PUSH1 0x20 PUSH0 KECCAK256 SWAP1 JUMPDEST DUP2 SLOAD DUP2 MSTORE SWAP1 PUSH1 0x1 ADD SWAP1 PUSH1 0x20 ADD DUP1 DUP4 GT PUSH2 0x1C4 JUMPI DUP3 SWAP1 SUB PUSH1 0x1F AND DUP3 ADD SWAP2 JUMPDEST POP POP POP POP POP DUP2 MSTORE PUSH1 0x20 ADD SWAP1 PUSH1 0x1 ADD SWAP1 PUSH2 0x14D JUMP JUMPDEST POP POP POP POP SWAP1 POP PUSH1 0x40 MLOAD DUP1 PUSH1 0x40 ADD PUSH1 0x40 MSTORE DUP1 PUSH1 0x6 DUP2 MSTORE PUSH1 0x20 ADD PUSH32 0x4B68757368690000000000000000000000000000000000000000000000000000 DUP2 MSTORE POP DUP2 PUSH0 DUP2 MLOAD DUP2 LT PUSH2 0x244 JUMPI PUSH2 0x243 PUSH2 0x41D JUMP JUMPDEST JUMPDEST PUSH1 0x20 MUL PUSH1 0x20 ADD ADD DUP2 SWAP1 MSTORE POP POP JUMP JUMPDEST PUSH0 PUSH1 0x40 MLOAD DUP1 PUSH1 0x40 ADD PUSH1 0x40 MSTORE DUP1 PUSH1 0x6 DUP2 MSTORE PUSH1 0x20 ADD PUSH32 0x6B68757368690000000000000000000000000000000000000000000000000000 DUP2 MSTORE POP DUP2 PUSH0 DUP2 SLOAD DUP2 LT PUSH2 0x29C JUMPI PUSH2 0x29B PUSH2 0x41D JUMP JUMPDEST JUMPDEST SWAP1 PUSH0 MSTORE PUSH1 0x20 PUSH0 KECCAK256 ADD SWAP1 DUP2 PUSH2 0x2B0 SWAP2 SWAP1 PUSH2 0x614 JUMP JUMPDEST POP POP JUMP JUMPDEST PUSH0 DUP1 REVERT JUMPDEST PUSH0 DUP2 SWAP1 POP SWAP2 SWAP1 POP JUMP JUMPDEST PUSH2 0x2CA DUP2 PUSH2 0x2B8 JUMP JUMPDEST DUP2 EQ PUSH2 0x2D4 JUMPI PUSH0 DUP1 REVERT JUMPDEST POP JUMP JUMPDEST PUSH0 DUP2 CALLDATALOAD SWAP1 POP PUSH2 0x2E5 DUP2 PUSH2 0x2C1 JUMP JUMPDEST SWAP3 SWAP2 POP POP JUMP JUMPDEST PUSH0 PUSH1 0x20 DUP3 DUP5 SUB SLT ISZERO PUSH2 0x300 JUMPI PUSH2 0x2FF PUSH2 0x2B4 JUMP JUMPDEST JUMPDEST PUSH0 PUSH2 0x30D DUP5 DUP3 DUP6 ADD PUSH2 0x2D7 JUMP JUMPDEST SWAP2 POP POP SWAP3 SWAP2 POP POP JUMP JUMPDEST PUSH0 DUP2 MLOAD SWAP1 POP SWAP2 SWAP1 POP JUMP JUMPDEST PUSH0 DUP3 DUP3 MSTORE PUSH1 0x20 DUP3 ADD SWAP1 POP SWAP3 SWAP2 POP POP JUMP JUMPDEST PUSH0 JUMPDEST DUP4 DUP2 LT ISZERO PUSH2 0x34D JUMPI DUP1 DUP3 ADD MLOAD DUP2 DUP5 ADD MSTORE PUSH1 0x20 DUP2 ADD SWAP1 POP PUSH2 0x332 JUMP JUMPDEST PUSH0 DUP5 DUP5 ADD MSTORE POP POP POP POP JUMP JUMPDEST PUSH0 PUSH1 0x1F NOT PUSH1 0x1F DUP4 ADD AND SWAP1 POP SWAP2 SWAP1 POP JUMP JUMPDEST PUSH0 PUSH2 0x372 DUP3 PUSH2 0x316 JUMP JUMPDEST PUSH2 0x37C DUP2 DUP6 PUSH2 0x320 JUMP JUMPDEST SWAP4 POP PUSH2 0x38C DUP2 DUP6 PUSH1 0x20 DUP7 ADD PUSH2 0x330 JUMP JUMPDEST PUSH2 0x395 DUP2 PUSH2 0x358 JUMP JUMPDEST DUP5 ADD SWAP2 POP POP SWAP3 SWAP2 POP POP JUMP JUMPDEST PUSH0 PUSH1 0x20 DUP3 ADD SWAP1 POP DUP2 DUP2 SUB PUSH0 DUP4 ADD MSTORE PUSH2 0x3B8 DUP2 DUP5 PUSH2 0x368 JUMP JUMPDEST SWAP1 POP SWAP3 SWAP2 POP POP JUMP JUMPDEST PUSH32 0x4E487B7100000000000000000000000000000000000000000000000000000000 PUSH0 MSTORE PUSH1 0x22 PUSH1 0x4 MSTORE PUSH1 0x24 PUSH0 REVERT JUMPDEST PUSH0 PUSH1 0x2 DUP3 DIV SWAP1 POP PUSH1 0x1 DUP3 AND DUP1 PUSH2 0x404 JUMPI PUSH1 0x7F DUP3 AND SWAP2 POP JUMPDEST PUSH1 0x20 DUP3 LT DUP2 SUB PUSH2 0x417 JUMPI PUSH2 0x416 PUSH2 0x3C0 JUMP JUMPDEST JUMPDEST POP SWAP2 SWAP1 POP JUMP JUMPDEST PUSH32 0x4E487B7100000000000000000000000000000000000000000000000000000000 PUSH0 MSTORE PUSH1 0x32 PUSH1 0x4 MSTORE PUSH1 0x24 PUSH0 REVERT JUMPDEST PUSH32 0x4E487B7100000000000000000000000000000000000000000000000000000000 PUSH0 MSTORE PUSH1 0x41 PUSH1 0x4 MSTORE PUSH1 0x24 PUSH0 REVERT JUMPDEST PUSH0 DUP2 SWAP1 POP DUP2 PUSH0 MSTORE PUSH1 0x20 PUSH0 KECCAK256 SWAP1 POP SWAP2 SWAP1 POP JUMP JUMPDEST PUSH0 PUSH1 0x20 PUSH1 0x1F DUP4 ADD DIV SWAP1 POP SWAP2 SWAP1 POP JUMP JUMPDEST PUSH0 DUP3 DUP3 SHL SWAP1 POP SWAP3 SWAP2 POP POP JUMP JUMPDEST PUSH0 PUSH1 0x8 DUP4 MUL PUSH2 0x4D3 PUSH32 0xFFFFFFFFFFFFFFFFFFFFFFFFFFFFFFFFFFFFFFFFFFFFFFFFFFFFFFFFFFFFFFFF DUP3 PUSH2 0x498 JUMP JUMPDEST PUSH2 0x4DD DUP7 DUP4 PUSH2 0x498 JUMP JUMPDEST SWAP6 POP DUP1 NOT DUP5 AND SWAP4 POP DUP1 DUP7 AND DUP5 OR SWAP3 POP POP POP SWAP4 SWAP3 POP POP POP JUMP JUMPDEST PUSH0 DUP2 SWAP1 POP SWAP2 SWAP1 POP JUMP JUMPDEST PUSH0 PUSH2 0x518 PUSH2 0x513 PUSH2 0x50E DUP5 PUSH2 0x2B8 JUMP JUMPDEST PUSH2 0x4F5 JUMP JUMPDEST PUSH2 0x2B8 JUMP JUMPDEST SWAP1 POP SWAP2 SWAP1 POP JUMP JUMPDEST PUSH0 DUP2 SWAP1 POP SWAP2 SWAP1 POP JUMP JUMPDEST PUSH2 0x531 DUP4 PUSH2 0x4FE JUMP JUMPDEST PUSH2 0x545 PUSH2 0x53D DUP3 PUSH2 0x51F JUMP JUMPDEST DUP5 DUP5 SLOAD PUSH2 0x4A4 JUMP JUMPDEST DUP3 SSTORE POP POP POP POP JUMP JUMPDEST PUSH0 SWAP1 JUMP JUMPDEST PUSH2 0x559 PUSH2 0x54D JUMP JUMPDEST PUSH2 0x564 DUP2 DUP5 DUP5 PUSH2 0x528 JUMP JUMPDEST POP POP POP JUMP JUMPDEST JUMPDEST DUP2 DUP2 LT ISZERO PUSH2 0x587 JUMPI PUSH2 0x57C PUSH0 DUP3 PUSH2 0x551 JUMP JUMPDEST PUSH1 0x1 DUP2 ADD SWAP1 POP PUSH2 0x56A JUMP JUMPDEST POP POP JUMP JUMPDEST PUSH1 0x1F DUP3 GT ISZERO PUSH2 0x5CC JUMPI PUSH2 0x59D DUP2 PUSH2 0x477 JUMP JUMPDEST PUSH2 0x5A6 DUP5 PUSH2 0x489 JUMP JUMPDEST DUP2 ADD PUSH1 0x20 DUP6 LT ISZERO PUSH2 0x5B5 JUMPI DUP2 SWAP1 POP JUMPDEST PUSH2 0x5C9 PUSH2 0x5C1 DUP6 PUSH2 0x489 JUMP JUMPDEST DUP4 ADD DUP3 PUSH2 0x569 JUMP JUMPDEST POP POP JUMPDEST POP POP POP JUMP JUMPDEST PUSH0 DUP3 DUP3 SHR SWAP1 POP SWAP3 SWAP2 POP POP JUMP JUMPDEST PUSH0 PUSH2 0x5EC PUSH0 NOT DUP5 PUSH1 0x8 MUL PUSH2 0x5D1 JUMP JUMPDEST NOT DUP1 DUP4 AND SWAP2 POP POP SWAP3 SWAP2 POP POP JUMP JUMPDEST PUSH0 PUSH2 0x604 DUP4 DUP4 PUSH2 0x5DD JUMP JUMPDEST SWAP2 POP DUP3 PUSH1 0x2 MUL DUP3 OR SWAP1 POP SWAP3 SWAP2 POP POP JUMP JUMPDEST PUSH2 0x61D DUP3 PUSH2 0x316 JUMP JUMPDEST PUSH8 0xFFFFFFFFFFFFFFFF DUP2 GT ISZERO PUSH2 0x636 JUMPI PUSH2 0x635 PUSH2 0x44A JUMP JUMPDEST JUMPDEST PUSH2 0x640 DUP3 SLOAD PUSH2 0x3ED JUMP JUMPDEST PUSH2 0x64B DUP3 DUP3 DUP6 PUSH2 0x58B JUMP JUMPDEST PUSH0 PUSH1 0x20 SWAP1 POP PUSH1 0x1F DUP4 GT PUSH1 0x1 DUP2 EQ PUSH2 0x67C JUMPI PUSH0 DUP5 ISZERO PUSH2 0x66A JUMPI DUP3 DUP8 ADD MLOAD SWAP1 POP JUMPDEST PUSH2 0x674 DUP6 DUP3 PUSH2 0x5F9 JUMP JUMPDEST DUP7 SSTORE POP PUSH2 0x6DB JUMP JUMPDEST PUSH1 0x1F NOT DUP5 AND PUSH2 0x68A DUP7 PUSH2 0x477 JUMP JUMPDEST PUSH0 JUMPDEST DUP3 DUP2 LT ISZERO PUSH2 0x6B1 JUMPI DUP5 DUP10 ADD MLOAD DUP3 SSTORE PUSH1 0x1 DUP3 ADD SWAP2 POP PUSH1 0x20 DUP6 ADD SWAP5 POP PUSH1 0x20 DUP2 ADD SWAP1 POP PUSH2 0x68C JUMP JUMPDEST DUP7 DUP4 LT ISZERO PUSH2 0x6CE JUMPI DUP5 DUP10 ADD MLOAD PUSH2 0x6CA PUSH1 0x1F DUP10 AND DUP3 PUSH2 0x5DD JUMP JUMPDEST DUP4 SSTORE POP JUMPDEST PUSH1 0x1 PUSH1 0x2 DUP9 MUL ADD DUP9 SSTORE POP POP POP JUMPDEST POP POP POP POP POP POP JUMP INVALID LOG2 PUSH5 0x6970667358 0x22 SLT KECCAK256 CREATE STATICCALL BASEFEE 0xE6 PUSH8 0xD2438C18FCAA801C SMOD PUSH9 0x4DC18BB132F75AC52 0xD2 0xC5 0xE7 DUP6 0xC9 0xA8 0x28 MSTORE PUSH5 0x736F6C6343 STOP ADDMOD ISZERO STOP CALLER "
		},
		"gasEstimates": {
			"creation": {
				"codeDepositCost": "363400",
				"executionCost": "infinite",
				"totalCost": "infinite"
			},
			"external": {
				"mem()": "infinite",
				"sto()": "infinite",
				"student(uint256)": "infinite"
			}
		},
		"methodIdentifiers": {
			"mem()": "85883d8c",
			"sto()": "bcad6210",
			"student(uint256)": "35f34232"
		}
	},
	"abi": [
		{
			"inputs": [],
			"name": "mem",
			"outputs": [],
			"stateMutability": "view",
			"type": "function"
		},
		{
			"inputs": [],
			"name": "sto",
			"outputs": [],
			"stateMutability": "nonpayable",
			"type": "function"
		},
		{
			"inputs": [
				{
					"internalType": "uint256",
					"name": "",
					"type": "uint256"
				}
			],
			"name": "student",
			"outputs": [
				{
					"internalType": "string",
					"name": "",
					"type": "string"
				}
			],
			"stateMutability": "view",
			"type": "function"
		}
	]
}